:020000040800F2
:10000000B86A0120D50300089F2100089720000846
:100010009D210008B31B00087D2A00080000000095
:1000200000000000000000000000000015030008B0
:10003000B51B0008000000007103000849260008F5
:10004000EF030008EF030008EF030008EF030008C8
:10005000EF030008EF030008B91B0008EF030008D6
:10006000F51B0008311C00086D1C0008EF03000898
:10007000EF030008EF030008EF030008EF03000898
:10008000EF030008EF030008EF030008EF03000888
:10009000EF030008EF030008EF030008EF03000878
:1000A000EF030008EF030008EF030008EF03000868
:1000B000EF030008EF030008EF030008EF03000858
:1000C000EF030008EF030008EF030008EF03000848
:1000D000EF0300080D2800086D280008BD2800085F
:1000E000EF030008EF030008EF030008EF03000828
:1000F000EF030008EF030008EF030008EF03000818
:10010000EF030008EF030008EF030008EF03000807
:10011000EF030008EF030008EF030008EF030008F7
:10012000EF030008EF030008EF030008EF030008E7
:10013000EF030008EF030008EF030008EF030008D7
:10014000EF030008EF030008EF030008EF030008C7
:10015000EF030008EF030008EF030008EF030008B7
:10016000EF030008EF030008EF030008EF030008A7
:10017000EF030008EF030008EF030008EF03000897
:10018000EF030008EF03000800F002F800F0B2F8F7
:100190000AA090E8000C82448344AAF10107DA45E2
:1001A00001D100F0A7F8AFF2090EBAE80F0013F082
:1001B000010F18BFFB1A43F001031847087C000029
:1001C000287C00000A444FF0000C10F8013B13F0AB
:1001D000070408BF10F8014B1D1108BF10F8015BA0
:1001E000641E05D010F8016B641E01F8016BF9D193
:1001F00013F0080F1EBF10F8014BAD1C0C1B09D1EA
:100200006D1E58BF01F801CBFAD505E014F8016B5B
:1002100001F8016B6D1EF9D59142D6D370470000ED
:100220000023002400250026103A28BF78C1FBD8FF
:10023000520728BF30C148BF0B6070476E2900F0DD
:100240002584702900F0B581662907F0B9846529F5
:1002500007F0B684672907F0B3846129AFF3008003
:1002600003681B0A28BF41F08001692900F026813C
:10027000642900F02381752900F020816F2900F0A6
:100280002B87782900F08181E92900F0C586E429CF
:1002900000F0C286F52900F0BF86EF2900F028871C
:1002A000F82900F080810368DB0928BF41F0800154
:1002B000632900F03486732900F03986E32900F0C1
:1002C000E787F32900F0EC87002070471FB507F09F
:1002D00072FC00F049FF04000020002107F04EF9F5
:1002E000401C60600020002107F032F9E0601FBD73
:1002F00010B510BD01F06EF81146FFF7E7FF04F0EE
:10030000E3FA01F095F803B4FFF7F2FF03BC02F043
:1003100032FC00002C4B19680868B0E8F04F80F3FD
:100320000988BFF36F8F4FF0000080F3118870478A
:100330000000000008480068006880F308884FF05B
:10034000000080F3148862B661B6BFF34F8FBFF32D
:100350006F8F00DF00BF00BF08ED00E0DFF80C008A
:10036000016841F470010160704700BF88ED00E052
:10037000EFF30980BFF36F8F134B1A681EF0100F55
:1003800008BF20ED108A20E9F04F106009B44FF04B
:10039000500080F31188BFF34F8FBFF36F8F06F0CB
:1003A000D7F94FF0000080F3118809BC196808687C
:1003B000B0E8F04F1EF0100F08BFB0EC108A80F3C9
:1003C0000988BFF36F8F704734100020EFF305806A
:1003D000704700000948804709480047FEE7FEE7EC
:1003E000FEE7FEE7FEE7FEE7FEE7FEE7FEE7FEE7E5
:1003F00004480549054A064B704700007526000869
:1004000089010008B8480120B86A0120B84A0120D3
:10041000B84A0120704700000A46014900F08CBD2F
:10042000201000200FB4044910B503AA029800F070
:1004300083FD10BC5DF814FB201000200FB41CB528
:10044000084B06AA7B4469460090059800F045FDDC
:1004500004460020694600F053FD20461CBC5DF8B0
:1004600014FB0000B90A000070B50C460546012ACD
:1004700005D02878800600D5EA69002302E0012330
:1004800005E05B1C934202D2E05C0028F9D1A86928
:10049000E618C01AA861286A18442862284600F0A5
:1004A00063FA04E0D5E9012114F8010B9047B44246
:1004B000F8D3284600F06EFA70BD00002DE9F04137
:1004C0000646002410687529314616A510D000F0A4
:1004D00072FA002802DA404213A507E031688A0761
:1004E00001D512A502E0490704D511A5012401E0B8
:1004F00000F06AFA00210A2206F1240709E0B0FBA5
:10050000F2FCB0FBF2F302FB1C00303078541846CA
:10051000491C0028F3D123462A463046BDE8F04165
:1005200000F05BBA000000002D0000002B0000006E
:1005300020000000F0B40D460188090502D5214CC9
:100540007C4402E01F4C7C440E34002100F1240660
:1005500008E002F00F071209E75D42EA03721B0987
:100560007754491C52EA0307F3D10278002312079B
:1005700004D5702D06D009B1022311342246F0BCF7
:1005800000F02BBA01231034F8E770B504460D468D
:100590002146106800F018FA024629462046BDE8B8
:1005A00070400023C6E7D21D22F00703D3E90023E1
:1005B000C0E70368126843F0200303600823C361A7
:1005C0000023B7E7847600002DE9F05F89460446F2
:1005D0004FF0000ADFF874B1FB44C0F820A02046B9
:1005E000E1688847002874D0252806D0D4E9012185
:1005F0009047206A401C2062F1E700265F462046B3
:10060000E16888472028054607DB312D05D2781997
:1006100010F8200C08B10643F1E7B00701D526F029
:100620000406C4F81CA00027C4F818A02A2D09D07D
:10063000284602F099FA38B304EB8708303DC8F831
:10064000185019E059F8041B204604EB8702916109
:10065000E1688847012F054618D1E069002820DAB3
:1006600026F020061DE0D8F8180000EB800005EB0E
:1006700040003038C8F818002046E1688847054631
:1006800002F072FA0028EED1012F0AD02E2D08D1E7
:100690002046E16888477F1C0546022F46F0200669
:1006A000C4DBA069002803DA404246F00106A061DD
:1006B000F00701D026F010066C2D0BD0682D09D064
:1006C0004C2D39D06A2D35D0742D35D07A2D33D0BC
:1006D00016E038E0E1682F4620468847B8420546D4
:1006E00009D16C2F26D04FF48060E1680643204684
:1006F0008847054604E06C2F1AD04FF480700643FB
:100700000DB3A5F14100192802D8203546F4006642
:100710004A462946204626604E46FFF78FFD80B1A7
:1007200001280BD0F61D26F0070000F1080956E756
:100730004020E4E78020D8E70020D6E706F104094E
:100740004DE7284652E7206ABDE8F09F1476000086
:1007500030B505460B462A4613F8014B12F8010B3B
:1007600008B1A042F8D01CB1002802D06D1CF1E7FE
:10077000284630BD10B5431C02E010F8011B71B1D2
:100780008107FAD14FF0013202C88C1A8C4314EA67
:10079000C211F9D0C01A0A0603D0C01E10BDC01A7B
:1007A00010BD0A0401D0801E10BD0902FCD0401EFD
:1007B00010BD032A40F2308010F0030C00F01580C9
:1007C00011F8013BBCF1020F624498BF11F801CB54
:1007D00000F8013B38BF11F8013BA2F1040298BFB9
:1007E00000F801CB38BF00F8013B11F0030300F023
:1007F0008984083AC0F0088051F8043B083A51F85F
:1008000004CBA0E80810F5E7121D5CBF51F8043BCB
:1008100040F8043BAFF30080D20724BF11F8013B3E
:1008200011F801CB48BF11F8012B24BF00F8013BA0
:1008300000F801CB48BF00F8012B704702F0FF031E
:1008400043EA032242EA024200F002B84FF00002FB
:100850000429C0F0128010F0030C00F01B80CCF1D2
:10086000040CBCF1020F18BF00F8012BA8BF20F840
:10087000022BA1EB0C0100F00DB85FEAC17C24BF94
:1008800000F8012B00F8012B48BF00F8012B70473E
:100890004FF0000200B5134694469646203922BF19
:1008A000A0E80C50A0E80C50B1F12001BFF4F7AF64
:1008B000090728BFA0E80C5048BF0CC05DF804EB46
:1008C000890028BF40F8042B08BF704748BF20F8B4
:1008D000022B11F0804F18BF00F8012B7047000069
:1008E0004FF0013C50F8042B51F8043B9A4221D1BF
:1008F000A2EB0C03934313EACC1317D150F8042B4B
:1009000051F8043B9A4215D1A2EB0C03934313EA2E
:10091000CC130BD150F8042B51F8043B9A4209D167
:10092000A2EB0C03934313EACC13DBD04FF000008F
:10093000704700BFD01A01BAB1FA81F101F0180175
:1009400022FA01F0CB40C1F12001DBB2C0B2C01AE3
:100950002CFA01F3D11A914311EAC311E6D1704781
:10096000704770477047704770B5044685690068E6
:10097000C10601D5302600E02026C00707D070BD93
:10098000D4E9012130469047206A401C20626D1E48
:10099000F6D570BD70B5044685690078C00707D1EB
:1009A00070BDD4E9012120209047206A401C2062BC
:1009B0006D1EF6D570BD09684A0501D540B2704775
:1009C000C905FCD500B2704709684A0501D5C0B217
:1009D0007047C905FCD580B270472DE9F0470D4638
:1009E00099469246044600F124080168880604D519
:1009F000E06921F01001216000E00120A84201DD42
:100A0000471B00E00027A1697A1902EB0900081AC8
:100A1000A0612078C00602D42046FFF7A5FF00267B
:100A200008E0D4E901211AF806009047206A401C2A
:100A3000761C20624E45F4DB2078C0060AD520469D
:100A4000FFF792FF06E0D4E9012130209047206AA9
:100A5000401C2062381EA7F10107F4DC07E0D4E94E
:100A6000012118F805009047206A401C2062281ECA
:100A7000A5F10105F3DC2046FFF78CFF2078000686
:100A800002D50220BDE8F0870120FBE7116802686B
:100A9000006A530501D508700AE0D30501D5088026
:100AA00006E0130603D5C217C1E9000200E00860A2
:100AB0000120704770472DE9FF4F0C461E464FF04E
:100AC000FF378BB0D2E90001DDF860800A908A46DA
:100AD000C1F30A5505B93D46002108464FF0000014
:100AE000BAF1000F00F4400005DA00EB80004FF48B
:100AF000400101EA50004FEA9059B9F1010F00DDC1
:100B0000B9460A9850EA4A000ED044F61050A5F2B1
:100B1000FF3545432F14B8F1000F1ED07542291E32
:100B20001EDDC9F100021CE0B8F1010F4FF000001A
:100B300001D0302103E0F24305E02154401CB042D3
:100B4000FBDB30460022002121540B99C1F80880BC
:100B5000C1E900200FB0BDE8F08FBD1B6D1CDEE7C2
:100B60004A4600DA694206A800F09EFB06AB93E80D
:100B7000070003AB83E8070050460A9900F05EFCCB
:100B80008DE80700A0F500501F3800900398002D55
:100B900009DD42F21F014A46084403A90390684652
:100BA00000F0BDFE08E0A0F500504A461F3803A93A
:100BB0000390684600F0C7FE8DE807000004000CB3
:100BC00003D04FF0FF30410800E01046B8F1000FAD
:100BD00003D00022009215461EE0751E05D400F0D9
:100BE000C7FA303262556D1EF9D5B346012208436B
:100BF00002D000227F1C04E02078302801D100229E
:100C00007F1E002A099786D01DE0112D07DA00F01B
:100C1000AFFA303262556D1C50EA0102F5D108433B
:100C200002D00098C8B10EE00021681E05E0235CE8
:100C3000625C63542254401E491C8142F7DBAB4680
:100C4000A81B401E0990002004F80B000B98099A7D
:100C5000C0F80880C0E9002B7CE711264FF000089F
:100C600059E72DE9F04F88460446D21D22F00701CE
:100C700091B0D1E90001CDE90A0101F05DFF024622
:100C80000B98C00F01D02D2007E02068810701D507
:100C90002B2002E0202101EAC000032A099001D0A4
:100CA000072A05DB03464146204600F0A7FA0BE180
:100CB0002078800601D5E06900E00620B8F1650FD4
:100CC000814606D0B8F1660F18D0B8F1670F70D121
:100CD00031E00020B9F1110F009001DB112301E098
:100CE00009F101030AAA01A90CA8FFF7E4FEDDE956
:100CF0000C70002609F10105834647E001204B46B0
:100D000000904FF000470AAA01A90CA8FFF7D3FEF4
:100D1000DDE90DB00C995D46002610B909F101001E
:100D20000D18B9EB050003D4C0F1FF3609F1010538
:100D3000A5EB09002BE0B9F1010F01DA4FF0010931
:100D40000020B9F1110F0090484601DD112300E0A9
:100D500003460AAA01A90CA8FFF7ADFEDDE90C7055
:100D60004D4600268346207800070AD4AB4500DABA
:100D70005D4601A8012D04DD411911F8011C30293F
:100D800007D04F4502DA17F1040F04DA012082463A
:100D90000FE06D1EEEE7002F02DCED1B3E4403E08A
:100DA000781CA84200DD7D1CB81B00F1010A4FF041
:100DB00000472078000703D4AA4501DB4FF0FF3A33
:100DC0000021B7F1004F0DF143088DF8431024D0F6
:100DD00002202B23002F01DA7F422D230A21021E3D
:100DE000A0F1010000DC5FB197FBF1FC97FBF1F291
:100DF00001FB1C7C17460CF1300C08F801CDEEE726
:100E0000A8F1010003702188090501D5452100E002
:100E10006521A0F1010800F8011C09980FA9A1EBB8
:100E20000807FF1D00B10120411901EBEA70A1691B
:100E30003844081A401EA0612078C00602D420461B
:100E4000FFF792FD099828B1D4E901219047206A63
:100E5000401C20622078C00622D52046FFF784FD82
:100E60001EE0002E04DBB34502DD01A8805D00E03A
:100E70003020D4E901219047206A401C2062761C72
:100E8000AAF101005FEA000A0AD100F06DF9C0681A
:100E90000168405CD4E901219047206A401C20622F
:100EA000281EA5F10105DCDC07E0D4E9012118F8D2
:100EB000010B9047206A401C2062381EA7F10107F1
:100EC000F3DC2046FFF766FD032011B043E6000087
:100ED00001694A1C02610878704700B58FB0CDE9FE
:100EE00001310021059105497944CDE903101146EE
:100EF0006846FFF769FB0FB000BD0000E5FFFFFF8C
:100F00000A6802F8010B0A60704710B5436913B113
:100F1000AFF3008001E0FFF7A7FA012010BD1278BF
:100F200000F124010A7000224A700122EDE71168E5
:100F30004FF0FF32E9E70000074B70B50D467B44E8
:100F4000FFF7CBFF0446284600F01CFA10B14FF023
:100F5000FF3070BD204670BD7F3500002DE9FF5F7A
:100F600015468A460446DFF8AC80F8440027D8E9E5
:100F700000103E46CDE9001010E03AF816106A461F
:100F800002A800F003FA411C07D02178890603D596
:100F9000E269391891420DD80744761C2078800602
:100FA00002D5E069B84205DDAE42E6DB3AF816004C
:100FB0000028E2D1A069C01BA0612046FFF7D4FC45
:100FC000D8E90010CDE90010002017E03AF8181019
:100FD0006A4602A800F0DAF9B0F1FF3F81460BD073
:100FE00000250DF1080B05E0D4E901211BF80500EF
:100FF00090476D1C4D45F7D308F10100B042804683
:10100000E4DB206A384420622046FFF7C3FCBDE8D9
:10101000FF9F0000966C00002DE9F0418046D21D34
:1010200022F007020025D2E90002F52915A614D006
:10103000011E72F1000106DA0023D0EB030063EB1E
:10104000020211A608E0D8F800108B0701D50FA600
:1010500002E0490701D50EA601251146002408F13A
:10106000240704E000F084F830323A55641C50EA5A
:101070000102F7D12B46324621464046BDE8F041F9
:10108000FFF7ABBC000000002D0000002B000000AB
:101090002000000030B4002100F1240408E002F038
:1010A0000705D208303542EA4372DB086554491C13
:1010B00052EA0305F3D10468002310A2250708D5DE
:1010C00004F020040C4304D0C46901230CA2641E64
:1010D000C46130BCFFF781BC10B5044621461068DE
:1010E000FFF772FC02462046BDE810400023D1E71E
:1010F000D21D22F00701D1E90023CBE70000000058
:101100003000000010B5203AC0F00B80B1E8185054
:10111000203AA0E81850B1E81850A0E81850BFF4E1
:10112000F5AF5FEA027C24BFB1E81850A0E8185080
:1011300044BF18C918C0BDE810405FEA827C24BFD4
:1011400051F8043B40F8043B08BF7047D20728BF62
:1011500031F8023B48BF11F8012B28BF20F8023BB1
:1011600048BF00F8012B70470048704778480120BD
:1011700030B5B0F10A024FEA900E71F100034EEA69
:10118000817EB0EB0E0061EB91014FEA101E4EEA3A
:10119000017E10EB0E0041EB11114FEA102E4EEACA
:1011A000016E10EB0E0041EB11214FEA104E4EEA9A
:1011B000014E10EB0E0041EB1141401841F10001CE
:1011C0004FEAD00040EA41704FEAD10110EB8005B0
:1011D0004FEA810444EA907444EB01046D1944EB36
:1011E0000404521BA3414FF0000348BF0A3200D54C
:1011F00030BD401C41F1000130BD00002DE9F0413F
:101200001F46044603260168072A01F4006004DB38
:1012100008B116A505E016A503E008B115A500E084
:1012200015A521F010002060A069C01EA0610FB1BB
:10123000401EA0612046FFF797FB4FB1D4E9012182
:1012400038469047206A401C2062C01C206206E09D
:10125000206AFAE7D4E9012115F8010B9047761EC0
:10126000F8D22046FFF796FBBDE8F0814E414E00D4
:101270006E616E00494E4600696E660010B54369A6
:1012800013B1AFF3008001E0FFF768FE012010BD4D
:10129000128800F1240182840022C2840122EDE739
:1012A00011684FF0FF32E9E72DE9F0478146164615
:1012B0008AB0334878440DC88DE80D003048784432
:1012C000801C03AC0DC884E80D0041F69B30084437
:1012D000372190FBF1F290FBF1F5A5F1800501FBC0
:1012E00012041B3C02D56442012000E00020DFF81C
:1012F00090A080460027FA44AAF1BE0A0DE0E0075C
:1013000009D03246684607EB47010AEB810100F03D
:101310001AFB8DE8070064107F1C002CEFD1184FDA
:101320007F44AC3F18E0E80714D007EB04100DF140
:10133000180A90E80E008AE80E00C068F04201D159
:1013400098190890324606A903A800F0FCFA03ABEE
:1013500083E807006D10641C002DE4D13246694615
:10136000B8F1000F03A802D000F0D9FA01E000F0B4
:10137000EAFAC9E90001C9F808200AB0BDE8F08717
:10138000D0690000007B00F08000704770B5164601
:101390000C46054600F044F8036893F80101012863
:1013A00006D0FF2C0FD8185D68B101202C7070BDDD
:1013B000D3F807013246214603F2071303442846B7
:1013C000BDE8704018474FF0FF3070BD00487047CF
:1013D000584801207546FFF7F9FFAE4605006946FB
:1013E000534620F00700854618B020B5FFF700F8F7
:1013F000BDE820404FF000064FF000074FF0000816
:101400004FF0000B21F00701AC46ACE8C009ACE896
:10141000C009ACE8C009ACE8C0098D4670470000BF
:1014200010B5FFF7A1FE001D10BD00BF5161000007
:101430000446AFF300802046FEF765FF5FEA400CEC
:1014400008BF91F0000F4FEA8C234FEAC12243EA14
:1014500051514FEA1C5018BF00F5F0404FEA3000E0
:1014600018BF41F000415FEA6C5C00F02980BCF1DC
:10147000FF3F08BF40F080407047130C06BF1204C6
:101480004FF0100C4FF0000C130E04BF12020CF1C1
:10149000080C130F04BF12010CF1040C930F04BFCE
:1014A00092000CF1020CD30F04BF52000CF1010C9E
:1014B00011464FF00002A0F11F00A0EB0C00704796
:1014C00011F0004F08BF704731F000413FF4D5AF35
:1014D0000B0C06BF09044FF0100C4FF0000C0B0E64
:1014E00004BF09020CF1080C0B0F04BF09010CF139
:1014F000040C8B0F04BF89000CF1020CCB0F04BF4E
:1015000049000CF1010CCCF12003A0EB0C0022FAF5
:1015100003F302FA0CF241EA030100F10100704703
:1015200020F07F4C80EA030023F07F47ACEB0703F9
:1015300003F57C5300F0004003F1FF032DE98049DF
:101540004FEA154B09B44FEA144325EA0B4E24EA3F
:1015500003480FF2042606EB132749083E785FEA9A
:10156000320203FB0667C7F5000707FB06F64FEAE2
:1015700054374FEAD64606F1020607FB066CCCF15B
:10158000005C4FEA1C472CEA074C07FB06F40CFBF7
:1015900006F504EB15464FEA961634BF00204FF0CF
:1015A00000404FEAD13706FB07FC4FEA1C4C0CFB0E
:1015B0000BF7D21B03FB0CF761EB07010CFB0EF7DB
:1015C000B0EB074072EB17420CFB08F734BFA2EBFD
:1015D0000742B2EB074261EB17414FEA0C444FEA76
:1015E000910706FB07FC4FEA1C4C0CFB0BF7B0EB1A
:1015F000C74072EB573203FB0CF734BFA2EBC74274
:10160000B2EBC74261EB57310CFB0EF7B0EBC700F2
:1016100072EB57720CFB08F734BFA2EBC702B2EBB8
:10162000C70261EB5771039F4FEA816141EA921152
:1016300004EBCC044FEAD1374FEA826206FB07FC89
:1016400042EA90124FEA80604FEA1C4C0CFB0BF709
:10165000D21B03FB0CF761EB07010CFB0EF7B0EBA1
:10166000074072EB17420CFB08F734BFA2EB0742AE
:10167000B2EB074261EB17414FEA8C554FEA9107F5
:1016800004EB9C2406FB07FC4FEA1C4C0CFB0BF7FD
:10169000B0EBC74072EB573203FB0CF734BFA2EB41
:1016A000C742B2EBC74261EB57310CFB0EF7B0EB10
:1016B000C70072EB57720CFB08F734BFA2EBC702EE
:1016C000B2EBC70261EB577115EB4C254FEA816114
:1016D00041EA92114FEA82624FEAD13742EA901210
:1016E00006FB07FC44F100044FEA80604FEA1C4C03
:1016F0000CFB0BF7D21B03FB0CF761EB07010CFB98
:101700000EF7B0EB074072EB17420CFB08F734BF43
:10171000A2EB0742B2EB074261EB174115EB1C1538
:101720004FEA813141EA92414FEA823242EA9042E5
:101730004FEA80304FEA0C7644F1000448EA034354
:101740004EEA0B484FF0000EB2EB080C71EB0307AA
:1017500024BF624639464EEB0E0E4FF0000B0018C8
:10176000524149414BEB0B0BB2EB080C71EB0307F9
:101770007BF1000B24BF624639464EEB0E0E4FF054
:10178000000B0018524149414BEB0B0BB2EB080C1C
:1017900071EB03077BF1000B24BF624639464EEB29
:1017A0000E0E51EA020718BF46F0010616EB0E7640
:1017B00055F1000254F1000103D5BDE88901BDE8EF
:1017C0000088BDE88901BDE80048B619524141EBE7
:1017D0000101A3F10103704780807F7E7D7C7B7ACD
:1017E0007978777676757473727171706F6E6E6DCD
:1017F0006C6C6B6A6A696868676666656464636373
:1018000062616160605F5F5E5E5D5D5C5C5B5B5AF8
:101810005A59595858575756565555555454535365
:1018200052525251515050504F4F4F4E4E4D4D4DC0
:101830004C4C4C4B4B4B4A4A4A494949484848470B
:101840004747474646464545454444444443434349
:101850004342424242414141002B26D4770021D0ED
:101860001CB54FEA370703B44FF010004FF01001DA
:101870004FF000000FBCBDE810400BF1010BBBF1B5
:10188000010F08BF5FEA170722BF12F1010211F131
:1018900001014FF0004143F1000300F0004043EA32
:1018A00000007047F9D35708DAE746EA064613F115
:1018B000400F4FEA16461FDD13F1200FDFBF16431E
:1018C0000A46002120335B42C8D0C3F1200746EA14
:1018D000064602FA07F74FEA164646EA0706C3F13C
:1018E000200722FA03F201FA07F721FA03F14FF079
:1018F000000342EA0702B1E746EA020646EA064664
:101900004FEA164646EA0106BCBF46EA0646360CD2
:101910004FF000034FF000024FF000019EE72DE969
:10192000C048934630B491E8380007C831EA400C0B
:1019300048BF34EA430C03D5FFF7F2FDFFF78CFFF5
:10194000F0BCBDE800882DE9C048934630B491E86A
:10195000380007C810F0804F08BF13F0804F03D144
:1019600000F005F8FFF778FFF0BCBDE8008820F034
:101970007F4780EA030023F07F4C07EB0C03A3F5BD
:101980007C5300F00040A3F1FE0392F0000F00F042
:10199000B38095F0000F00F077802DE901494FEA00
:1019A00011404FEA144621EA004800FB06FC24EAF5
:1019B000064708FB06F607FB08F800FB07F718EBDD
:1019C00006484CEB164C4FEA124B18EB07484FEA0F
:1019D00015464CEB174022EA0B4E0BFB06FC25EAA2
:1019E00006470EFB06F607FB0EFE0BFB07F71EEB8A
:1019F000064E4CEB164C4FF000061EEB074E4CEB20
:101A0000174B18EB0B0840F1000018EB0E0B58EBCE
:101A1000000840F100008F1A4FF000013CBFC9439D
:101A2000661B14BFB5EB040C00213CBFC943F61B79
:101A30004FEA17444EEA8E0E27EA04454FEA1C4748
:101A400004FB07622CEA074C05FB07F70CFB05F6C5
:101A500004FB0CFC16EB074642EB174216EB0C4658
:101A600042EB1C421BEB060658EB0202414146EAE0
:101A70009E0601D5BDE80189B619524141EB01012D
:101A8000A3F10103BDE801894FEA14454FEA11476C
:101A900024EA054621EA074C05FB07F406FB07F795
:101AA0000CFB06F105FB0CFC11EB074144EB174462
:101AB0004FEA124711EB0C4144EB1C4422EA074C5D
:101AC00005FB07F206FB07F70CFB06F605FB0CFC13
:101AD00016EB074642EB174216EB0C4642EB1C4551
:101AE0006A1854F1000148BF7047B619524141EBE2
:101AF0000101A3F10103704795F0000F37D04FEAC1
:101B000011424FEA144721EA024624EA074C02FB3D
:101B100007F106FB07F70CFB06F402FB0CFC14EBC9
:101B2000074441EB17414FEA154714EB0C4441EBD6
:101B30001C4125EA074C02FB07F506FB07F70CFBE7
:101B400006F602FB0CFC16EB074645EB174516EBB9
:101B50000C4645EB1C42121951F1000148BF704779
:101B6000B619524141EB0101A3F1010370474FEA5D
:101B700014454FEA114724EA054621EA074C05FBC4
:101B800007F106FB07F70CFB06F24FF0000605FB1A
:101B90000CFC12EB074241EB174112EB0C4251EBEC
:101BA0001C4148BF7047921841EB0101A3F10103AA
:101BB0007047FEE77047000010B55020EFF3118426
:101BC00080F31188BFF34F8FBFF36F8F012000F0B8
:101BD00071F8012808D1064800220121006804F0AC
:101BE0004FFE012000F060F884F3118810BD000062
:101BF0004C00002010B55020EFF3118480F31188C1
:101C0000BFF34F8FBFF36F8F042000F053F801280C
:101C100008D1064800220221006804F031FE0420A9
:101C200000F042F884F3118810BD00004C00002041
:101C300010B55020EFF3118480F31188BFF34F8F5C
:101C4000BFF36F8F082000F035F8012808D106484F
:101C500000220421006804F013FE082000F024F89C
:101C600084F3118810BD00004C00002010B55020F6
:101C7000EFF3118480F31188BFF34F8FBFF36F8FA1
:101C8000102000F017F8012808D10648002208218A
:101C9000006804F0F5FD102000F006F884F31188C8
:101CA00010BD00004C000020014908607047000092
:101CB000143C0140034A0146002012680A4200D049
:101CC00001207047143C014030B51A4A83790168FD
:101CD00053B313688B431360111D0B680468A3434F
:101CE0000B60017911440B68046823430B60114BAE
:101CF000083319680468A14319601C1D2168056830
:101D0000A94321604179102905D011440A6800686F
:101D100002430A6030BD19680268114319602168E6
:101D200000680143216030BD0079104402688A4395
:101D3000026030BD003C014070B50B4C05460221ED
:101D4000204600F0E7FB0028F9D02946204600F0A5
:101D5000EAFB0121204600F0DDFB0028F9D02046F7
:101D600000F0DFFBC0B270BD003001402DE9F04152
:101D700014460D46074600F0B1F8114E0020C6F893
:101D8000B8020220FFF7D8FFC7F30740FFF7D4FFE0
:101D9000C7F30720FFF7D0FFF8B201E014F8010BFA
:101DA000FFF7CAFF6D1EF9D20120C6F8B80200F095
:101DB0004FF8C007FBD1BDE8F04100F07FB800004C
:101DC000008040422DE9F041104E074600201446A5
:101DD0000D46C6F8B8020320FFF7AEFFC7F3074071
:101DE000FFF7AAFFC7F30720FFF7A6FFF8B2FFF738
:101DF000A3FF04E0FF20FFF79FFF04F8010B6D1E17
:101E0000F8D20120C6F8B802BDE8F0810080404257
:101E100070B50E4D0020C5F8B802902005F52E755E
:101E2000FFF78AFF0020FFF787FF0020FFF784FFFE
:101E30000020FFF781FFFF20FFF77EFF0402FF2055
:101E4000FFF77AFF20430121296070BD00804042E6
:101E500010B5074C0020C4F8B802052004F52E7414
:101E6000FFF76AFFFF20FFF767FF0121216010BD28
:101E70000080404270B5044600F030F80E4D00205E
:101E8000C5F8B802202005F52E75FFF755FFC4F3FD
:101E90000740FFF751FFC4F30720FFF74DFFE0B203
:101EA000FFF74AFF01202860FFF7D2FFC007FBD1F0
:101EB000BDE8704000F002B80080404210B5064C0A
:101EC0000020C4F8B802042004F52E74FFF734FF94
:101ED0000120206010BD00000080404210B5064C7B
:101EE0000020C4F8B802062004F52E74FFF724FF82
:101EF0000120206010BD0000008040422DE9F0412B
:101F000088B00121022000F08FFA0121080300F0BF
:101F1000A3FA01258DF8045000244FF480408DF879
:101F20000640DFF8BC8000908DF8075003268DF83E
:101F300005606946404600F059F82A48C0F8B85292
:101F400002278DF8047030208DF8064000908DF83F
:101F500007508DF805606946404600F047F88DF857
:101F6000047008208DF8064000908DF807708DF8F9
:101F700005606946404600F039F8052203214046D5
:101F800000F070F805220421404600F06BF80522AD
:101F90001146404600F066F8ADF808404FF48270F4
:101FA000ADF80A00ADF810406802ADF81200182034
:101FB000ADF81400ADF80C40ADF80E40ADF8164089
:101FC0000720094CADF8180002A9204600F0ADFA30
:101FD0000121204600F094FA08B0BDE8F08100002D
:101FE000000402400080404200300140F0B5002271
:101FF00001274FF0030C0B6807FA02F52B40AB42A8
:102000002CD1066853000CFA03F4A64306600E793F
:10201000D0F800E09E4046EA0E0606600E79012EDA
:1020200001D0022E12D18668A64386604E79D0F880
:1020300008E09E4046EA0E0686604668AE4346606B
:1020400045688E799640B6B235434560C568A5436C
:10205000C560CC799C40C3681C43C460521C102AE4
:10206000C9D3F0BD4B07DB0E9A40C90810B500EB91
:102070008100016A0F249C40A1430162016A11435F
:10208000016210BD0246002052690A4200D00120C0
:10209000704701837047FEE770B5012003F0C2FA74
:1020A0000A4C0120C4F8A802C4F8A002052004F5D7
:1020B000287401F0A7FD00252560052001F0A2FD90
:1020C000A560BDE87040052001F09CBD0080414244
:1020D00070B5012003F0A6FA084C0125C4F8A852F7
:1020E0000020C4F8A002052004F5287401F08AFD40
:1020F0002560BDE87040052001F084BD00804142AC
:1021000070B50024204603F08DFA094D0120C5F872
:10211000A802052001F076FDD5F8200200B10124C7
:102120000020C5F8A802052001F06CFD204670BD16
:102130000080414202494CF6CC40086070470000E4
:102140000030004002494AF6AA20086070470000AB
:1021500000300040014948607047000000300040F6
:1021600001498860704700000030004010B545F21A
:10217000555000F00DF80320FFF7ECFF4FF47A60A4
:10218000FFF7EEFFFFF7D6FFBDE81040FFF7DABF1D
:10219000014908607047000000300040FEE77047CA
:1021A00000F01F02012191404009800000F1E02071
:1021B000C0F88011704700F01F02012191404009D2
:1021C000800000F1E020C0F80011704730B50F2307
:1021D000C27801780125FAB1144A126801F1E021B0
:1021E00002F4E062C2F5E062C2F30722C2F1040425
:1021F000D3404278A24084781C401443220181F8E5
:102200000024007800F01F018D404009800000F19B
:10221000E020C0F8005130BD01F01F0085404809A2
:10222000800000F1E020C0F8805130BD0CED00E0EE
:102230000249084302490860704700000000FA059F
:102240000CED00E070B50025002105F1B00000F0B4
:10225000E4F80021084600F0E0F80021102000F02A
:10226000DCF800240121002000F0D7F8641CE4B25F
:10227000802CF7D36D1CEDB2082DE5D370BD2DE990
:10228000F0471F4690460E4682460025DDF8209016
:1022900011E03146504600F0ABF8544607E019F81B
:1022A000050001216D1C00F0B8F8641CE4B244453F
:1022B000F5D3761CF6B2BE42EBD3BDE8F087000042
:1022C00010B50121082000F0AFF845480124C0F8FE
:1022D000BC4244484FF4C0610322016004710021F4
:1022E00081714271C17101463F48FFF77FFE3F484F
:1022F000C0F8A842C82001F083FC0021AE2000F005
:102300008CF80021084600F088F80021102000F029
:1023100084F80021402000F080F80021B02000F077
:102320007CF80021812000F078F80021FF2000F0E7
:1023300074F80021A12000F070F80021A62000F020
:102340006CF80021A82000F068F800213F2000F080
:1023500064F80021C82000F060F80021D32000F0CC
:102360005CF80021084600F058F80021D52000F064
:1023700054F80021802000F050F80021D82000F00F
:102380004CF80021052000F048F80021D92000F089
:1023900044F80021F12000F040F80021DA2000F09C
:1023A0003CF80021122000F038F80021DB2000F07A
:1023B00034F80021302000F030F800218D2000F0AA
:1023C0002CF80021142000F028F80021AF2000F0A4
:1023D00024F80021BDE810402E2000F01EB80000B7
:1023E00000804042F80F0020000C02400080414273
:1023F00010B50A460446002102F1B00000F00DF8C5
:10240000102040EA1410002100F007F804F00F003B
:10241000BDE810400021AFF30080C0B209B100F068
:1024200074BB00F05BBB0000044A0029116801D0B6
:10243000014300E0814311607047000030380240E2
:10244000044A0029116801D0014300E08143116072
:102450007047000040380240044A0029116801D04A
:10246000014300E08143116070470000443802409E
:1024700070B5204B1968204C11F00C0104D0661087
:10248000042903D0082903D004601BE0066019E08A
:10249000184A121F1168C1F38055116801F03F01FD
:1024A00015B1B6FBF1F101E0B4FBF1F1146812686B
:1024B000C4F388146143C2F30142521C5200B1FBC1
:1024C000F2F1016019680F2202EA11110B4A545C03
:1024D0000168E14041601C68072505EA9424145D09
:1024E00021FA04F484601B6805EA5333D25CD140BE
:1024F000C16070BD083802400024F40024100020A0
:102500000029018802D041F0400101E021F04001A2
:10251000018070470246002012890A4200D0012043
:102520007047808970478181704730B502884C8838
:1025300002F441530A88CD8822438C882C432243DD
:102540000C8922434C8922438C892243CC89224323
:102550001A430280828B22F400628283098A0182FC
:1025600030BD000010B58A0721F003040849120F9E
:1025700021440F23D1F8084893409C43C1F80848F0
:10258000D1F8083890400343C1F8083810BD000066
:10259000003001400CB500222749009201920868E2
:1025A00040F4803008604FF4A043086800F4003025
:1025B00001900098401C0090019810B90098984232
:1025C000F3D10868800334D5012001901A484030C7
:1025D000026842F0805202601848026842F44042A9
:1025E00002601548083002680260026842F4004246
:1025F0000260026842F4A0520260031F104A1A608F
:102600000A6842F080720A600A689201FCD50D499E
:1026100040F205720A60016821F00301016001685F
:1026200041F0020101600168C1F381010229FAD180
:102630000CBD01920CBD000000380240007000404B
:1026400008544007003C024010B5502080F3118828
:10265000BFF34F8FBFF36F8F04F07AFD18B10449B9
:102660004FF080500860002080F3118810BD0000FA
:1026700004ED00E0124810B5016841F470010160FA
:102680001048016841F0010101600E4A0021083242
:10269000116002680C4B1A400260031D0B4A1A605D
:1026A000026822F48022026006480C300160FFF7C5
:1026B00071FF03494FF000608039086010BD0000D1
:1026C00088ED00E000380240FFFFF6FE10300024E5
:1026D0000029018802D041F0800101E021F0800151
:1026E000018070470029018802D041F0010101E01A
:1026F00021F001010180704770B5028C22F01002B8
:102700000284028C8388048B0D8824F4E6464FF6FD
:10271000FF7404EA052535438E8922F0200204EA7D
:10272000061616434A8804EA02123243104EB0429B
:1027300002D0104EB04215D122F08006CA8923F48F
:10274000406304EA0212324322F040068A8804EA17
:10275000021232430E8A04EA86061E434B8A04EABA
:10276000830333438380058389688163028470BD5A
:102770000000014000040140028B4FF6FF7322F479
:10278000006203EA012111430183704781637047AE
:1027900030B50288164C174DA0420DD0A8420BD080
:1027A000B0F1804F08D0144B984205D0134B98429B
:1027B00002D0134B984203D122F070034A881A4387
:1027C000104B984206D0104B984203D022F440732D
:1027D0000A891A4302804A68C2620A880285A042B6
:1027E00001D0A84201D1897A01860121818230BDC0
:1027F00000000140000401400004004000080040C7
:10280000000C004000100040001400402DE9F04191
:102810005020EFF3118480F31188BFF34F8FBFF383
:102820006F8F0F4E40F225573946304600F090F832
:1028300080B1304600F01AF9C5B2294609A0FDF76B
:10284000F1FD0948312D09D000210160394630469B
:1028500000F067F884F31188BDE8F0810121F4E706
:1028600000100140256300003800002070B5104CB6
:1028700040F225552946204600F06AF8012815D176
:10288000204600F0F3F80B4B1A680B491144521C18
:102890001A6008701868B0F5007F01D301205860F5
:1028A00029462046BDE8704000F03BB870BD0000EE
:1028B000004400400C100020FC16002070B5502091
:1028C000EFF3118480F31188BFF34F8FBFF36F8F45
:1028D0000F4D40F225563146284600F039F80128C0
:1028E00012D1284600F0C2F80A49C0B20A68B2F50F
:1028F000FF7F05D80A68084B1344521C0A60187001
:102900003146284600F00DF884F3118870BD0000B0
:102910000048004074000020CC120020C943018010
:1029200070470A0A01219140C9430180704700297C
:10293000818902D041F4005101E021F400518181EC
:1029400070470246002012880A4200D001207047DA
:1029500070B501F01F0501260024C1F3421306FAE9
:1029600005F2012B0FD0022B0FD0838A4FEA1121E1
:102970000088134206FA01F600EA060001D000B111
:102980000124204670BD8389F0E7038AEEE710B585
:10299000C1F3421301F01F040121A140012B07D014
:1029A000022B07D01430002A026805D00A4304E045
:1029B0000C30F8E71030F6E78A43026010BD0000E3
:1029C0007FB50446008A0D46C98820F44050014373
:1029D0002182A08941F20C618843A9882A89114388
:1029E0006A8902431143A181A08A20F44071A88919
:1029F0000843A0826846FFF73BFD1A48844202D094
:102A00001948844201D1039800E00298A189090481
:102A100000EBC00101EB0010296801D5490000E07E
:102A20008900B0FBF1F06422B0FBF2F109010B095F
:102A30006FF018056B4300EB8300A3891D044FF072
:102A4000320306D503EBC000B0FBF2F000F0070044
:102A500005E003EB0010B0FBF2F000F00F000843BC
:102A600020817FBD00100140001401408088C0F328
:102A700008007047C1F3080181807047FEE700003D
:102A80002DE9F0418046012002F0CCFD124E0027D6
:102A9000C6F8A872C6F8A072052001F0B3F80724A2
:102AA000012505FA04F010EA080F02D0C6F8A0527A
:102AB00001E0C6F8A072052001F0A4F8C6F8A852FB
:102AC000052001F09FF8C6F8A872052001F09AF8D9
:102AD000641EE6D5BDE8F0810080414210B5044691
:102AE000FFF7DAFA7820FFF7CBFFFFF709FB0020AA
:102AF000FFF7C6FFFFF704FB2046FFF7C1FFFFF714
:102B0000FFFABDE81040FFF7E3BA10B50446FFF73F
:102B1000C3FA7820FFF7B4FFFFF7F2FA4020FFF77F
:102B2000AFFFFFF7EDFA2046FFF7AAFFFFF7E8FA3D
:102B3000BDE81040FFF7CCBA03B4019841000098FB
:102B400050EAC12018BF04204A0D18BF40F0010010
:102B500040F2FF72B2EB515F08BF40F00200012863
:102B600008BF052002B0704730380A2801D2012082
:102B70007047002070477047ADF5007D54A001F00C
:102B800069F84FF47A7405E05AA001F063F8204622
:102B900001F036F801F06AFA0028F5D101F028F8C2
:102BA0005A4E0025C6F8A452642006F5297601F095
:102BB00027F801F015F801243460642001F020F8B2
:102BC00001F016F83560642001F01AF801F008F8F9
:102BD00034606420A6F5297601F012F84CA0FDF7C8
:102BE00021FCDFF858814746D8F80C0003F0D4FCEC
:102BF000FC62534F4FF0FF3AE94652466946D8F817
:102C0000500004F0D3F80146012803D04DA001F094
:102C100021F8F2E700204A464FF40073115C312995
:102C200008D0322915D0332922D034292FD0352984
:102C30003CD046E0111891F801C0BCF1220F40D100
:102C4000C978312902D0C6F8A4423AE0C6F8A452A5
:102C500037E0111891F801C0BCF1220F31D1C978C9
:102C6000312902D0C6F8A8422BE0C6F8A85228E0C5
:102C7000111891F801C0BCF1220F22D1C978312975
:102C800002D0C7F8B4421CE0C7F8B45219E01118DA
:102C900091F801C0BCF1220F13D1C978312902D0BB
:102CA000C7F8B8420DE0C7F8B8520AE0111891F819
:102CB00001C0BCF1220F04D1C9783129414604D0AA
:102CC0008D63401C9842A9D397E78C63F9E7000015
:102CD0006170705F7461736B5F6573703832363624
:102CE0002063726561746520737563636573730D2A
:102CF0000A000000657370383236365F6D71747487
:102D00005F696E6974202E2E2E0000000080424202
:102D10006573703832363620636F6E6E656374206B
:102D2000616C6979756E2077697468206D7174744F
:102D300020737563636573730D0A00000000002043
:102D4000000042425B6170705F7461736B5F65731A
:102D500070383236365D2078517565756552656319
:102D600065697665206572726F7220636F64652095
:102D700069732025640D0A001CB501278F4EADF83C
:102D800000704FF47A78F06B01287DD1404600F056
:102D900037FF8BA000F05EFF4FF4FA744FF4E1357B
:102DA00005E0204600F02CFF88A000F053FF2846E5
:102DB00002F036FE0028F4D18BA000F04BFF00F0AB
:102DC00017FF322000F01CFF00F00AFF01A802F0FC
:102DD000E1FDBDF804108AA000F03CFF307801F05E
:102DE00001FD0546C00749D08DA000F033FF98A033
:102DF00000F030FF062100243222084602F076FC63
:102E000000E0641C02F0D4FE10B10A2CF9D35EE09D
:102E10000A2C5CD29BA000F01DFF684602F072FDF8
:102E200060B1C0B202F0EAFC01469FA000F012FFC0
:102E3000C8220721002002F059FCCFE7BDF800109E
:102E40009FA000F007FFBDF8000002F0F7FD0400AE
:102E50004FF0320223D00321084602F047FC4046DF
:102E600000F0CEFEE0B202F0C9FC01469AA000F0EC
:102E7000F1FEC8220721002002F038FCA80749D53E
:102E800067A000F0E7FE00E071E097A000F0E2FE2E
:102E9000062100243222084602F028FC0FE005211A
:102EA000084602F023FC404600F0AAFE00F0A0FE17
:102EB000322000F0A5FE00F093FED3E7641C02F080
:102EC00077FE10B10A2CF9D301E00A2C03D392A0AB
:102ED00000F0C0FEACE798A000F0BCFE684602F02F
:102EE000BBFB04004FF0320228D00321084602F059
:102EF000FDFB404600F084FEE0B202F07FFC01469C
:102F0000BDF8002094A000F0A5FEC82207210020F3
:102F100002F0ECFB680735D541A0FDF783FA01A864
:102F200002F038FD0446C0B202F068FC0146BDF86C
:102F300004208FA000F08EFEECB123E005210846AE
:102F400002F0D4FB404600F05BFE00F051FE322060
:102F500000F056FE00F044FE0024F463C82207216E
:102F6000204602F0C3FB8A48C0F89042B763642051
:102F700003F0A0F907E700F03BFE322000F040FE2E
:102F800000F02EFE280714D525A0FDF74BFA02F01D
:102F9000F3FB0446C0B202F031FC01467DA000F014
:102FA00059FE34B900F024FE322000F029FE00F072
:102FB00017FE642003F07EF910E7000000000020F7
:102FC000D6B8CEC6B5C7C2BC0D0A0000B5E7C8DD8D
:102FD000D6B8CEC6C4A3BFE9C1ACBDD3D6D0202ECF
:102FE0002E2E0D0A00000000B5E7C8DDD6B8CEC60B
:102FF000C4A3BFE9D2D1C1ACBDD3C9CF0D0A000073
:10300000B5E7C8DDD6B8CEC6C4A3BFE9D3C3BBA756
:10301000D7DCCAFD203D202564200D0A00000000F9
:103020000D0A0D0A3D3D3D3D3D3D3D3D3D3D3D3D96
:103030003D3D3D3D3D3D3D3D3D3D3D3D3D3D3D3DC0
:103040003D3D3D3D3D3D3D3D3D0D0A0D0A0000002D
:10305000D6B4D0D0CCEDBCD3D6B8CEC6B2D9D7F783
:103060002CC7EBBDABCAD6D6B8B7C5B5BDD6B8CEA2
:10307000C6C4A3BFE9B4A5C3FEB8D0D3A6C7F80D94
:103080000A000000BCECB2E2B5BDCAD6D6B8A3AC0B
:10309000CFD6D4DABFAACABCCCEDBCD3D6B8CEC684
:1030A0002E2E2E0D0A000000BBF1C8A1CEB4CAB965
:1030B000D3C3B5C4D3C3BBA769642025730D0A006D
:1030C000BDABCAB9D3C3B5C4D3C3BBA76964CEAAC9
:1030D00025640D0A00000000CCEDBCD3D6B8CEC6E6
:1030E0002025730D0A000000D6B4D0D0CBA2D6B8EC
:1030F000CEC6B2D9D7F72CC7EBBDABCAD6D6B8B7B8
:10310000C5B5BDD6B8CEC6C4A3BFE9B4A5C3FEB885
:10311000D0D3A6C7F80D0A00C3BBD3D0BCECB2E233
:10312000B5BDCAD6D6B8A3ACC7EBD6D8D0C2B2D933
:10313000D7F7210D0A000000BCECB2E2B5BDCAD63B
:10314000D6B8A3ACCFD6D4DABFAACABCCBA2D6B865
:10315000CEC62E2E2E0D0A00CBA2D6B8CEC6202566
:103160007320CAB6B1F0B5BD69643D25640D0A008F
:10317000B5E7C8DDD6B8CEC6C4A3BFE9D3C3BBA7E5
:10318000D7DCCAFD202573202564200D0A0000002D
:1031900000004042C9BEB3FDCBF9D3D0D3C3BBA717
:1031A0002025730D0A00000086B000241421684613
:1031B000FDF76EFBFEF72CFE01463EA0FDF732F94F
:1031C0004FF4FA794D46484600F01AFD3C4A0A2170
:1031D0000020FEF7F7FD3A493AA0FDF723F928460B
:1031E00000F00EFD36491222A1F11200FDF7E1FABE
:1031F000384EA046306C012837D137A0FDF712F9C0
:103200006F4635784E2D0ED000F0F2FC642000F0B1
:10321000F7FC00F0E5FC294639A0FDF703F93D5520
:10322000641C232D03D0C82000F0EAFCE9E76946BE
:1032300037A0FDF7F7F800242046FEF71BFE4846AE
:1032400000F0DEFC6A4612210020FEF78FFD1421FB
:103250006846FDF71DFB01207064C6F840802DA074
:10326000FDF7E0F839A0FDF7DDF8706C01281CD1FE
:103270003EA0FDF7D7F8FEF7CBFD01460DA0FDF708
:10328000D1F8484600F0BCFC0D4A12210020FEF7A0
:1032900099FD0B490BA0FDF7C5F8C6F84480084915
:1032A0001222A1F11200FDF784FA4FF47A7000F0B7
:1032B000A7FC9FE757323549443D25780D0A0000A9
:1032C000BA10002072646174616275663D25730DE9
:1032D0000A000000000000205468652070617373CC
:1032E000776F7264206368616E6765206D6F6465D7
:1032F00020697320646973706C617965640D0A00DC
:103300006368616E6765203A2025630A000000004B
:1033100025730A00506C6561736520656E74657273
:1033200020612070617373776F72642077697468AD
:103330002031382063686172616374657273206F35
:1033400072206C6573730D0A000000005061737386
:10335000776F7264206368616E676564207375635C
:103360006365737366756C6C790D0A00456E7465E0
:1033700072207468652070617373776F7264207651
:10338000696577696E67206D6F64650D0A000000DE
:103390007CB501F043FA00F003FC01F0A7F9FEF759
:1033A0008FFF00F06FFC02F0B9FC01F039F900F07A
:1033B00069FCFEF7A3FDFEF7D9FE012003F066FBD2
:1033C000364CA06403F008FA4FF40075E064002264
:1033D0002946032003F06CFB206504F10800052456
:1033E000CDE90040002380222DA1314803F070FE7A
:1033F0002A4800230C30CDE900402A462DA131484F
:1034000003F066FE254800231830CDE900408022F5
:103410002DA1314803F05CFE204800231030CDE997
:1034200000406A002DA1324803F052FE1B480023E1
:103430001430CDE900402A462EA1334803F048FE5F
:1034400016490A201C31CDE90001002380222FA15A
:10345000324803F03DFE114800232030CDE9004002
:1034600080222FA1324803F033FE0C480023243081
:10347000CDE9004080222FA1324803F029FE074801
:1034800000232830CDE9004080222FA1324803F0EC
:103490001FFEBDE87C40002002F032BF000000208B
:1034A0006170705F7461736B5F6B65790000000021
:1034B0005D3500086170705F7461736B5F6D71746E
:1034C00074000000913800086170705F7461736B64
:1034D0005F6F6C6564000000E13900086170705F27
:1034E0007461736B5F6573703832363600000000AC
:1034F000792B00086170705F7461736B5F6D6F6E24
:1035000069746F72000000000D3800086170705F10
:103510007461736B5F73746565720000493B0008EA
:103520006170705F7461736B5F6B65793136000039
:10353000213700086170705F7461736B5F66696E3C
:1035400067657200792D00086170705F7461736B3C
:103550005F666C6173680000A931000808B558A067
:1035600000F078FBDFF878B15E4D5F4FDFF87CA1AB
:1035700000264FF001084FF0FF3000900023012299
:103580000F21E86C03F084F90446322002F092FE29
:10359000E00721D00620FEF703FEDBF80002D94643
:1035A000B8B953A000F056FB00F022FBC7F8A462A4
:1035B000642000F025FB00F013FBC7F8A482EE6343
:1035C000AE6302E0142002F075FED9F80002002874
:1035D000F8D00620FEF7EFFDA00723D50820FEF760
:1035E000DFFDDAF80802D146C8B944A000F032FB8A
:1035F00000F0FEFAC7F8A462642000F001FB00F0BE
:10360000EFFAC7F8A482C5F83C80CBF8908202E0BC
:10361000142002F04FFED9F808020028F8D0082044
:10362000FEF7C9FD600723D50920FEF7B9FDDAF8DA
:103630000C02D146C8B934A000F00CFB00F0D8FA57
:10364000C7F8A462642000F0DBFA00F0C9FAC7F8FA
:10365000A4820221E963C5F8408002E0142002F050
:1036600029FED9F80C020028F8D00920FEF7A3FDA6
:10367000200780D50A20FEF793FDDAF810025446A1
:10368000C8B924A000F0E6FA00F0B2FAC7F8A462C4
:10369000642000F0B5FA00F0A3FAC7F8A482032171
:1036A000E963C5F8448002E0142002F003FED4F878
:1036B00010020028F8D00A20FEF77DFD5BE700002D
:1036C0006170705F7461736B5F6B657920637265A5
:1036D00061746520737563636573730D0A00000080
:1036E00000004042000000200080424200004242B0
:1036F00053312050726573730D0A0000533220500D
:10370000726573730D0A0000533320507265737332
:103710000D0A000053342050726573730D0A0000C7
:1037200086B014216846FDF7B3F8002421A0FCF709
:1037300079FE2E4F012500F0CDFE3870396CA9BB03
:103740004E2833D000F054FA294E0020C6F8A402C7
:10375000642006F5297600F053FA00F041FA35604E
:10376000397824A0FCF75EFE38780DF80400641C5C
:10377000694623281AD100241FA0FCF753FE2049D4
:103780006846FDF7ADF818B9BD631EA0FCF74AFE08
:103790001B4968461231FDF7A3F818B9BD6319A09B
:1037A000FCF740FE14216846FDF772F8C82002F0CD
:1037B00081FDC0E7506C6561736520656E7465724C
:1037C00020612070617373776F7264207769746809
:1037D0002031382063686172616374657273206F91
:1037E00072206C6573730D0A000000000000002059
:1037F0000080424225630A0025730A0D0000000084
:10380000A810002043584E420D0A000013A000F0FB
:1038100021FA1B4E1B4D4FF47A7800274FF40079A4
:103820002C680A2000F0ECF9F06A0028F8D0002C8F
:10383000F6D028688442F3D1002342461249306D05
:1038400003F0A4F90146012802D0104800F002FA62
:103850002F6049460C48FCF7F9FFE1E76170705FA3
:103860007461736B5F6D6F6E69746F7220637265E4
:103870006174652073756363657373200D0A0000BE
:103880000000002074000020CC120020A07C000862
:103890001FB533A00024D0E90010CDE9021032A0FA
:1038A00000F0D8F938A000F0D5F9002002F0EAFEC7
:1038B0003BA000F0CFF94FF47A75284602F0FAFCED
:1038C000A84601F0F7F901F06FF9404600F098F9C9
:1038D000641C032CF5D3002402A800F0F1F90028A1
:1038E000EFD19DF80B00344F00EE100A9DF80A004E
:1038F000F8EE400AB2EE040A80EE801A00EE900A5A
:10390000F8EE600A71EE200AC7ED0C0A9DF8090076
:1039100000EE900A9DF80800B8EE601AC1EE000AA9
:1039200000EE100AB8EE400A30EE800A87ED0D0A6C
:1039300097ED0D0A10EE100A04F0CCF897ED0C0A82
:1039400005460E4610EE100A04F0C4F841EC100BC8
:10395000CDE9005653EC102B18A0FCF763FDB0E73F
:1039600014053808140000006170705F7461736B97
:103970005F6D717474206372656174652073756323
:10398000636573730D0A00006170705F7461736B1F
:103990005F6D7174742073757370656E640D0A00C9
:1039A0006170705F7461736B5F6D717474207265A8
:1039B00073756D650D0A00000000002054656D7080
:1039C000657261747572653D252E31662048756D8E
:1039D00069646974793D252E31660D0A0000000086
:1039E00008B500252C46FEF72DFC504F002108237A
:1039F000382208460097FEF742FCDFF8348108239E
:103A0000782200214020CDF80080FEF738FC494E96
:103A1000F06B854223D01DB900212E20FEF7FDFC5E
:103A20000A2002F047FCF56BFEF70CFC0A2002F0BE
:103A300041FCF06B98B9F4B100240021082338222E
:103A400008460097FEF71BFC08237822002140203F
:103A5000CDF80080FEF713FC0A2002F02BFCF06B7F
:103A600058B1F06B012839D0F06B02283BD0F06BD5
:103A700003283FD051E00124DFE7012C4FF0000183
:103A80004FF02E0025D0FEF7C8FC00212720FEF7BE
:103A9000C4FC00210846FEF7C0FC00210846FEF7E2
:103AA000BCFC00210720FEF7B8FC00210720FEF730
:103AB000B4FC00210846FEF7B0FC0021FF20FEF711
:103AC000ACFC00212F20FEF7A8FC642002F0F2FBE2
:103AD00023E0FEF7A2FC00212620D8E716480823A1
:103AE0005F22009003E01548082360220090002127
:103AF000202010E012480021009008238022084670
:103B0000FEF7BDFB642002F0D5FB0E4800210090BB
:103B1000082380220846FEF7B2FB642002F0CAFBAD
:103B200000212E20FEF779FC72E7000080080020BB
:103B3000400A002000000020000C0020F80D0020AA
:103B400080000020800400200E4D0024A86B012876
:103B500002D0A86B10B104E0002000E0B42002F015
:103B600085F8642000F04CF8022C08D10620FEF7FE
:103B700017FBFEF7E7FA0620FEF71DFB0024641C86
:103B8000E4E7000000000020034610B500200246D4
:103B900003E09C5C6040521CD2B28A42F9D310BD53
:103BA0001CB501212020FEF73FFC4FF480700090EF
:103BB00001208DF8040003208DF8050000248DF805
:103BC00006408DF8074069460348FEF70FFA0348A0
:103BD000C0F8A0421CBD0000001402400080424218
:103BE00002490020C1F8A002704700000080424254
:103BF00002490120C1F8A002704700000080424243
:103C000002F058BB2DE9F0414FF0E0280024D8F82D
:103C100014700E4A0E4BD8F818501268B2FBF3F627
:103C2000464302F08DFD41468869A842FCD002D28D
:103C3000A5EB000202E0A7EB00022A44144405466B
:103C4000B442F1D3BDE8F04103F0B4BB580000200A
:103C500040420F000FB44FF0FF3170B5084D05AC76
:103C6000A86C03F03FF921460498FCF7D5FB00232C
:103C70001A461946A86C02F089FF70BC5DF814FB67
:103C80000000002010B501214020FEF7CDFB0948BF
:103C90004FF400710124016004710321417100217E
:103CA0008171C17101460448FEF7A0F90348C0F8CC
:103CB000A44210BD6C0000200018024000004342E6
:103CC0002DE9F05F524D80464FF400704FF0010A2D
:103CD0002860002485F804A04FF0030B85F805B098
:103CE000AC7157462646EC7129464A48FEF77EF9E4
:103CF000DFF82491C9F8A4621420FFF781FFC9F806
:103D0000A4721E20FFF77EFF4FF4007028602E7112
:103D100085F805B0AE71EE7129463E48FEF766F9AA
:103D20004FF47A664D4609E00120641CFFF76AFFF4
:103D3000B44203D34FF0FF30BDE8F09FD5F8240222
:103D40000028F1D1002408E00120641CFFF75AFF8D
:103D5000642C02D36FF00100EEE7D5F824020028AE
:103D6000F2D0002408E00120641CFFF74BFF642C14
:103D700002D36FF00200DFE7D5F824020028F2D169
:103D80000027A94600260725002408E00120641C1E
:103D9000FFF738FF642C02D36FF00300CCE7D9F8AB
:103DA00024020028F2D02820FFF72CFFD9F82402A3
:103DB00090B10AFA05F03043C6B2002408E00120B1
:103DC000641CFFF71FFF642C02D36FF00400B3E7FD
:103DD000D9F824020028F2D16D1ED5D508F8076065
:103DE0007F1C052FCEDB98F8001098F8010098F89A
:103DF0000220014498F803001044084498F8041085
:103E0000C0B2814202D06FF0050095E7002093E731
:103E10006C000020001802400000434270B50546C7
:103E20000C461CA000F036FB4FF47A711DA000F088
:103E300001F910B14FF0FF3070BD1BA000F02AFB5C
:103E40001CA000F027FB284600F024FB19A000F07E
:103E500021FB19A000F01EFB16A000F01BFB204662
:103E600000F018FB13A000F015FB14A000F012FBEB
:103E700041F2883421460BA000F0DCF838B121462D
:103E80000FA000F0D7F810B16FF0010070BD002056
:103E900070BD000041542B43574D4F44453D330DF9
:103EA0000A0000004F4B000041542B43574A415039
:103EB0003D000000220000002C0000000D0A000060
:103EC000434F4E4E454354007FB5054600200090B9
:103ED00001900290039014460E461CA000F0DAFAFE
:103EE0001EA000F0D7FA284600F0D4FA1BA000F07C
:103EF000D1FA1BA000F0CEFA18A000F0CBFA3046A1
:103F000000F0C8FA15A000F0C5FA15A000F0C2FA3A
:103F1000224614A16846FCF791FA684600F0BAFA06
:103F200011A000F0B7FA41F2883421460FA000F04A
:103F300081F840B121460FA000F07CF818B14FF095
:103F4000FF3004B070BD0020FBE7000041542B435C
:103F5000495053544152543D0000000022000000DB
:103F60002C000000256400000D0A0000434F4E4E57
:103F7000454354004F4B000010B508B107A000E0C6
:103F800008A000F087FA41F2883108A000F052F84A
:103F9000002801D04FF0FF3010BD000041544531E2
:103FA0000D0A0000415445300D0A00004F4B00003F
:103FB00010B50EA000F06EFA41F2883421460FA031
:103FC00000F038F810B14FF0FF3010BD4FF4FA6038
:103FD000FFF716FE0AA000F05DFA21460CA000F0E3
:103FE00029F80028F1D06FF0010010BD41542B4397
:103FF00049504D4F44453D310D0A00004F4B0000E4
:1040000041542B43495053454E440D0A00000000D3
:104010003E00000010B54FF47A742046FFF7F0FD23
:1040200003A000F037FA2046FFF7EAFD002010BD9C
:104030002B2B2B0070B50C460546094E03E00120E2
:10404000FFF7DEFD641E29463046FCF781FB10B108
:104050001CB1002070BD002CF1D14FF0FF3070BDBD
:10406000CC1200204FF4E13001F05CBF10B5FFF737
:10407000F9FFFFF7CFFF28B13FA0FCF7D3F94FF0CE
:10408000FF3010BD48A0FCF7CDF94FF4FA6420468C
:10409000FFF7B6FD00F0E8F928B14FA0FCF7C2F930
:1040A0006FF0010010BD2046FFF7AAFD0020FFF7CA
:1040B00063FF28B14EA0FCF7B5F96FF0020010BD08
:1040C00053A0FCF7AFF92046FFF79AFD58A15BA07B
:1040D000FFF7A4FE28B15BA0FCF7A4F96FF0030082
:1040E00010BD5FA0FCF79EF92046FFF789FD40F266
:1040F0005B7263A16EA0FFF7E7FE28B16DA0FCF72D
:1041000091F96FF0040010BD72A0FCF78BF9204606
:10411000FFF776FDFFF74CFF28B177A0FCF782F997
:104120006FF0050010BD80A0FCF77CF92046FFF77A
:1041300067FD8AA294A19AA000F010FC28B1A2A069
:10414000FCF770F96FF0060010BDA4A0FCF76AF947
:104150002046FFF755FD01220021A6A000F0B0FD8A
:1041600028B1B2A0FCF75EF96FF0070010BDB6A051
:10417000FCF758F9002010BD657370383236365F91
:10418000657869745F7472616E73706172656E7464
:104190005F7472616E736D697373696F6E206661AF
:1041A000696C0D0A00000000657370383236365FA6
:1041B000657869745F7472616E73706172656E7434
:1041C0005F7472616E736D697373696F6E2073755E
:1041D00063636573730D0A00657370383236365F3A
:1041E0007265736574206661696C0D0A00000000D9
:1041F000657370383236365F656E61626C655F6517
:1042000063686F283029206661696C0D0A00000020
:10421000657370383236365F656E61626C655F65F6
:1042200063686F283029737563636573730D0A00C3
:104230003132333435363738000000004358484EA9
:1042400042000000657370383236365F636F6E6E01
:104250006563745F6170206661696C0D0A0000001F
:10426000657370383236365F636F6E6E6563745F88
:10427000617020737563636573730D0A000000003D
:10428000696F742D30367A30306638706D736A61BC
:104290006A616D2E6D7174742E696F746875622E0B
:1042A000616C6979756E63732E636F6D0000000039
:1042B00054435000657370383236365F636F6E6EEC
:1042C0006563745F736572766572206661696C0DF3
:1042D0000A000000657370383236365F636F6E6EA9
:1042E0006563745F73657276657220737563636569
:1042F00073730D0A00000000657370383236365F44
:10430000656E7472795F7472616E73706172656EDE
:10431000745F7472616E736D697373696F6E20661A
:1043200061696C0D0A000000657370383236365FC3
:10433000656E7472795F7472616E73706172656EAE
:10434000745F7472616E736D697373696F6E2073DD
:104350007563636573730D0A0000000042334445C2
:1043600043374236314339414232344137413136A5
:10437000434644344539374236453941373344386A
:104380003244413700000000736D617274646576D9
:10439000696365266A30726949535436644459002A
:1043A000303030317C7365637572656D6F64653D67
:1043B000332C7369676E6D6574686F643D686D61F9
:1043C00063736861317C00006D7174745F636F6E3C
:1043D0006E656374206661696C0D0A006D7174749A
:1043E0005F636F6E6E65637420737563636573736B
:1043F0000D0A00002F7379732F6A30726949535484
:10440000366444592F736D617274646576696365AF
:104410002F7468696E672F736572766963652F7094
:10442000726F70657274792F736574006D71747436
:104430005F7375627363726962655F746F706963DD
:10444000206661696C0D0A006D7174745F7375622A
:104450007363726962655F746F70696320737563FB
:10446000636573730D0A000010B506A000F012F822
:1044700042F2107106A0FFF7DDFD002801D04FF0D9
:10448000FF3010BD41542B5253540D0A0000000060
:104490004F4B000010B504464FF400710548FCF77F
:1044A000D5F9054A002111602046BDE8104001F011
:1044B0009FBD0000CC1200207400002001F082BDDE
:1044C00003490A885206FCD5C2B28A8070470000B0
:1044D000001001402DE9F0474D4F4FF00008C7F89C
:1044E00098820125C7F89C524A4CC4F89852C4F8E7
:1044F000A052022004F50B74FFF782FB2068A4F59C
:104500000B74E0B3444ED6F81402C8B3DFF80CA124
:10451000DAF81802A8B3D6F8300298B3C7F8985260
:10452000C7F89C82C4F89852C4F8A0520220FFF742
:1045300067FBD4F82C0230B3D6F81402F0B3DAF8E3
:104540001802E0B3D6F83002D0B3C7F89852C7F8D3
:104550009C52C146C4F89882C4F8A0520220FFF7CA
:104560004FFBD4F82C0260B3D6F8140250B3DAF83B
:104570001802D04638B3D6F8300278B304E025E00C
:1045800026E027E028E02AE0C7F89852C7F89C52B6
:10459000C4F89852C4F8A092022004F50B74FFF7F7
:1045A0002FFB206858B3D6F8140250B3D8F818027D
:1045B00048B3D6F8300240B34E2005E011E012E0D7
:1045C00013E014E015E016E0BDE8F0873120F4E7D1
:1045D0003220F2E73320F0E74120EEE70DE034200F
:1045E000EBE73520E9E73620E7E74220E5E737202B
:1045F000E3E73820E1E73920DFE74320DDE72A2041
:10460000DBE73020D9E72320D7E74420D5E70000B7
:10461000008041420000414200004242000040420E
:104620007CB501210846FDF7FFFE01210420FDF7BE
:10463000FBFE01210820FDF7F7FE01211020FDF708
:10464000F3FE01212020FDF7EFFE01214020FDF7C0
:10465000EBFE0125C0208DF80450002400908DF859
:10466000064003208DF805008DF80740694619487B
:10467000FDF7BCFC4FF4A070174E00906946304621
:10468000FDF7B4FC2802009069461448FDF7AEFC23
:1046900040208DF8075000908DF80440694610487E
:1046A000FDF7A4FC20200F4D009069462846FDF739
:1046B0009DFCA814009069462846FDF797FCE81475
:1046C000009069463046FDF791FC0748C0F8A042CB
:1046D0007CBD0000000C02400008024000140240B3
:1046E00000000240001002400080424270B50121EB
:1046F00086B00846FDF798FE01211020FDF794FED4
:1047000001218803FDF7A8FE00248DF80840032648
:1047100001258DF8096001958DF80B4001A92F48FE
:10472000FDF764FC1C208DF8084001908DF80960AD
:104730008DF80B4001A92A48FDF758FC00210846D6
:10474000FDF710FF02210420FDF70CFF03210420D8
:10475000FDF708FF04210846FDF704FF1D20039024
:104760008DF810400C208DF811008DF8125003A820
:10477000FDF7AAFA06208DF8000005248DF8014007
:104780008DF802408DF803506846FDF71FFD0820A4
:104790008DF800008DF801408DF802408DF803502F
:1047A0006846FDF713FD09208DF800008DF80140E3
:1047B0008DF802408DF803506846FDF707FD0A208A
:1047C0008DF800008DF801408DF802408DF80350FF
:1047D0006846FDF7FBFC06B070BD0000000002401B
:1047E000001002400C4A014600201268012A09D13B
:1047F000412908D0422908D0432909D0442901D1B0
:1048000040F0080070470120704740F002007047F8
:1048100040F00400704700003C0000202DE9FC41FE
:1048200001211020FDF700FE01212020FDF7FCFDF5
:1048300001210846FDF7F8FD01248DF8044000250C
:104840008DF806500326DFF874804FF4C0678DF8AA
:10485000056000978DF8074069464046FDF7C6FBA6
:1048600039464046FDF715FC8DF804408DF806509A
:10487000DFF84C8077038DF8056000978DF80740CE
:1048800069464046FDF7B2FB39464046FDF701FC5C
:104890008DF804408DF806508DF805608DF80740BE
:1048A0001020084C009069462046FDF79FFB102120
:1048B0002046FDF7EEFBBDE8FC810000001402403D
:1048C00000100240000002401CB50322002101201C
:1048D00002F0EEF81949486520B100231A4619463E
:1048E00002F054F94FF44070FDF7A2FC14484FF465
:1048F0007A710068B0FBF1F0401EB0F1807F0AD2FF
:104900004FF0E02148610F4AF02082F8140D00209A
:104910008861072008614FF4165001F04DFA0749ED
:104920000520091DCDE9000100234FF4007206A106
:10493000094802F0CDFB01F06DFEFEE7000000200B
:10494000580000200FE000E06170705F7461736BCD
:104950005F696E6974000000913300082DE9F74F1C
:1049600093460098FBF706FF07460198FBF702FF06
:1049700005465846FBF7FEFEDFF868C110210446E5
:10498000574B8CF8001078190121022620444FF073
:1049900000081030596000F07F02C009002801D0E3
:1049A00042F080020CF8012001F101015960F2D1BE
:1049B00059684246E1460CF80120604601F10101C8
:1049C0004FF0040CC24600F801C0984601F1010105
:1049D0004FF04D03435401F101014FF05103435493
:1049E00001F101014FF05403435401F1010143541B
:1049F00001F101014FF0C20300F801C001F1010112
:104A0000435401F10101425401F101014FF03C0214
:104A1000425401F101014FEA1722425401F1010110
:104A20003A46475401F1010109EB0100C8F80410AE
:104A30000099FBF7BEFED8F804003844C8F804001B
:104A40008DB12A0A09F80020401C474609F8005099
:104A5000401CC8F8040048442A460199FBF7A9FE07
:104A6000786828447860204D9CB1D8F80400220A68
:104A7000474609F80020401C224609F80040401C27
:104A8000C8F8040048445946FBF793FE7868204470
:104A900078604746DFF854904FF4007B40F6B83812
:104AA000761E1AD359461048FBF7D0FEC9F800A06D
:104AB0000C48796800F0FCF8444608E00120FFF754
:104AC0009FF82878202802D16878022802D0641E36
:104AD000E6D3F3E70020BDE8FE8F4FF0FF30FAE7A2
:104AE00078000020CC100020CC12002074000020A0
:104AF0002DE9F04790468A468146FBF73BFE044687
:104B00005046FBF737FE0546254E0020B8F1000F52
:104B1000706004EB050001D0001D00E0801C214FF7
:104B2000302139700121716000F07F01C009002837
:104B300001D041F080017268B95402F10102726043
:104B4000F2D110464FEA1421395402F101004946CE
:104B50003C5402F10200706038442246FBF729FE03
:104B60007068B8F1000F204470600AD00C494A7890
:104B70003A54401C09783954401C70603088401CFD
:104B8000308070682A4638445146FBF712FE706840
:104B900041190448716000F08BF87068BDE8F08737
:104BA00078000020CC1000202DE9F0472B4C88B075
:104BB0004FF400712046FDF765FA002844D000202C
:104BC00082464FF480612046FDF75CFA00283DD014
:104BD0000020234C81464FF400512046FDF752FA45
:104BE000002835D0002080464FF480412046FDF754
:104BF00049FA78B300271B480068C6B21A4890EDFE
:104C0000000A10EE100A02F065FF044617480D4630
:104C100090ED000A10EE100A02F05CFF8DE83004FF
:104C2000CDE9057641EC100BCDE9039853EC102B40
:104C30000F491048FBF702FC08B00022BDE8F0471E
:104C40000C490DA0FFF754BF0120B9E70120C0E7D0
:104C50000120C8E7FFE70127CDE70000001402406C
:104C600000100240380000203400002030000020F6
:104C7000E47C0008CC1400202F7379732F6A307203
:104C800069495354366444592F736D617274646575
:104C9000766963652F7468696E672F6576656E74D3
:104CA0002F70726F70657274792F706F737400005B
:104CB000FFF704BC02210148FFF7FABFC67B0008DA
:104CC0002DE9F05F90468A4683460225FBF752FDA8
:104CD0000446344F344EB8F100004FF001024FF05B
:104CE000000C00D01046204400F10400C6F804C0B7
:104CF00001D0822100E0A2213970726000F07F03B0
:104D0000C009002801D043F0800371687B5401F191
:104D100001017160F2D107F801C001F101014FEA10
:104D200014207A5401F10101E146785401F10101A6
:104D300022467C5401F1010107EB010071605946E4
:104D4000FBF737FD7068B8F1000F2044174C706016
:104D500003D007F800A0401C7060CA46DFF85080FE
:104D60004FF4007B40F6B83928466D1E18D3C8F8BA
:104D700000A059460D48FBF769FD0A487168FFF726
:104D800097FF4F4608E00120FEF73AFF2078902871
:104D900002D16078032802D07F1EE5D3F3E700201C
:104DA000BDE8F09FCC10002078000020CC1200203D
:104DB000740000202DE9F041184E0F460446F568B6
:104DC0003068001D01F03FF938B9306890F82C10B8
:104DD00001208840316981433161601C07D137B1BE
:104DE0003168BDE8F0410E48091D01F085B9306811
:104DF0002C44AC424460316805D2B06BBDE8F04150
:104E0000091D01F061B9706B091D01F05DF9B06A0F
:104E1000844200D2B462BDE8F0810000341000206A
:104E20001C1C00202DE9F041054601F071F92D4EC2
:104E3000B068401CB06030682B4F10B1706930B35F
:104E40002BE03560B068012827D1002404EB8400F2
:104E500007EB800001F02AF9641C202CF6D32348CC
:104E600001F024F92148143001F020F91F482830BE
:104E700001F01CF91D483C3001F018F91B48503076
:104E800001F014F9194870631430B06305E030681C
:104E9000E96AC06A884200D83560706A0121401C06
:104EA00070622864E86A326981401143316100EB25
:104EB000800007EB8000291D01F01EF901F048F980
:104EC000706900280CD03068E96AC06A884207D24D
:104ED00007494FF080500860BFF34F8FBFF36F8FCB
:104EE000BDE8F081341000204C190020CC1B0020BC
:104EF00004ED00E010B501F00BF90E4C2068A0B9EC
:104F00000D4801F0D3F80C48143001F0CFF80A48EE
:104F1000E06014302061002210210A2001F0C8FD59
:104F2000206010B105A101F091F9BDE8104001F039
:104F30000FB9000070100020301C0020546D725119
:104F40000000000030B4026C0B46002A0BD0C16890
:104F50001144C1604468A14201D30168C16030BC02
:104F60001846FBF726BC30BC70472DE9F041856B35
:104F7000174604460026026C82B1C7B1E068FBF711
:104F800018FCE168206C091AE1602268914202D2A3
:104F90006168081AE060022F16D017E02068A8B9EF
:104FA000606802F035F90646002060600EE0A068F7
:104FB000FBF7FFFB216CA0680844A0606168884291
:104FC00004D32068A06001E005B16D1E6D1CA563CF
:104FD0003046BDE8F08110B50446006B01F0CCF816
:104FE0002046BDE8104001F0C7B8000010484FF45B
:104FF0009631420706D0C01D0D4920F00700411A26
:10500000C1F596310B4A00230144C2E90003083977
:10501000103A21F0070111604B600B600B1AC0E9D8
:10502000001393604FF000405360D0607047000061
:10503000581C002094100020144E154DA6F52F7713
:105040004FF08058DFF84C9011E001F061F8F06803
:10505000C468201D00F0F7FFA868401EA8606868BB
:10506000401E686001F074F82046FFF7B4FF6868DE
:105070000028EAD13868012805D9C9F80080BFF3B3
:105080004F8FBFF36F8F00F0FDFFF0E7081C00208B
:105090003410002004ED00E02DE9F0470E46DDE974
:1050A00009841746824691009946089DA522206BE7
:1050B000FBF7C4FB6FF00301206B01EB8701084491
:1050C00020F00707780707D0502080F31188BFF33E
:1050D0004F8FBFF36F8FFEE72218315C82F83410D8
:1050E000315C11B1401C0A28F6D3002684F83D60DB
:1050F000202D00D31F25E562C4E91256201D00F0C3
:10510000E0FF04F1180000F0DCFF2461C5F120008D
:105110006462A061266584F854604A465146384668
:1051200000F06AFA2060B8F1000F01D0C8F8004022
:10513000BDE8F08730B5114900E011460A688242A7
:10514000FBD34B685C18844203D140681844486024
:10515000084643681C18944209D1084C103C246846
:10516000A24209D052681A4442600A68126802607A
:10517000814200D0086030BD0460F9E7941000203F
:1051800070B5002441600B4D0061914206D8D11AE0
:105190008269914206D2011D286907E09A4203D232
:1051A000994201D3012403E0011DE86800F08CFF5F
:1051B000204670BD7010002010B5044600F0A8FF16
:1051C000A06B20B1002400F0C3FF204610BD0124D5
:1051D000F9E7000030B587B02E4D52E00198002865
:1051E00006DADDE90301029A90470198002848DBBE
:1051F000039C606910B1201D00F025FF05A800F098
:10520000B5F8024601980A283BD2DFE800F0050510
:10521000053A263705053A260298A1690346014456
:105220002046FFF7ADFF00B3616A20468847E0697A
:10523000012826D1002000900298A169002342187D
:105240001946204602F03EF978B9502080F31188C3
:10525000BFF34F8FBFF36F8FFEE70298A06128B1B5
:10526000811813462046FFF78BFF0AE0502080F399
:105270001188BFF34F8FBFF36F8FFEE7204600F01A
:105280007BFF002201A9286801F090FD0028A5D12C
:1052900007B030BD701000202DE9FC410E460546D8
:1052A00001F04EFA01A800F061F80446019818B127
:1052B00002F080F8BDE8FC81224FAEB13869006889
:1052C000A8B30026291B3246386800F0D1FF02F04F
:1052D00071F80028EED11C494FF080500860BFF3F0
:1052E0004F8FBFF36F8FE5E7A542EBD802F062F86E
:1052F000F8682646C068C468201D00F0A4FEE06976
:10530000012810D1A0692B46411932462046FFF7EB
:1053100037FF40B100200346014600902A46204650
:1053200002F0D0F820B1616A20468847C2E707E062
:10533000502080F31188BFF34F8FBFF36F8FFEE7CC
:105340000126BFE77010002004ED00E00648416B25
:10535000096829B1416BC968C968496881627047A9
:105360004FF0FF31FAE700003410002070B5054619
:1053700001F0E8FE064E0446B068844203D200F015
:1053800009F8012000E0002028602046B46070BDCC
:1053900070100020F8B5194E1FE0C068C468056899
:1053A000201D00F050FE616A20468847E069012810
:1053B00013D1A0692844A84206D924616060211D48
:1053C000F06800F081FE08E00020034601460090EE
:1053D0002A46204602F076F838B1F06801680029C4
:1053E000DBD13169C6E90310F8BD502080F3118884
:1053F000BFF34F8FBFF36F8FFEE7000070100020E8
:1054000008484068401C4FF0500080F3118804D0D9
:10541000BFF34F8FBFF36F8FFEE7BFF34F8FBFF325
:105420006F8FFEE79C100020002150B10A4B4269AB
:105430009A420FD1806AA3F1280290420AD040B16B
:1054400008E0502080F31188BFF34F8FBFF36F8FB8
:10545000FEE70121084670471C1C0020034600207F
:1054600012B1994302D070470B42FCD00120704723
:10547000084CE068016839B1002139B10020FFF71C
:105480000BFFFFF7A7FEF4E70121F6E7C06800680D
:10549000F5E70000701000202DE9F041044600F00F
:1054A00037FE94F9455004F1240609E0606A48B1DA
:1054B000304601F043FF08B100F080FF6D1E6DB271
:1054C000002DF3DC4FF0FF3684F8456000F040FE1D
:1054D00000F01EFE94F9445004F1100709E0206921
:1054E00048B1384601F02AFF08B100F067FF6D1E91
:1054F0006DB2002DF3DC84F84460BDE8F04100F0AB
:1055000027BE00002DE9F0410546002601F018F9FC
:10551000324F386808B9FFF769FDF86805424BD18A
:10552000C5B3083568070ED005F00700C0F10800C4
:105530000544680707D0502080F31188BFF34F8FD0
:10554000BFF36F8FFEE72DB37868854234D82349C7
:1055500010310846046801E0214604466068A8420C
:1055600002D220680028F7D13868844224D00E681F
:105570002068086060680836411B10290FD960193F
:10558000420708D0502080F31188BFF34F8FBFF33C
:105590006F8FFEE710E041606560FFF7CBFD61684B
:1055A0007868401A7860BA68904200D2B860F868AB
:1055B00001430020C4E9000101F0FCFE0EB900F037
:1055C00062FD700707D0502080F31188BFF34F8F22
:1055D000BFF36F8FFEE73046BDE8F08184100020F6
:1055E0000449086818B10868C26C521CC264086893
:1055F000704700003410002010B5031F4FF0807476
:105600001C601B1F21F001011960191F044B0B6066
:1056100014390A60091F6FF0020244380A6010BD95
:105620000154000810B5044601210820FCF7FCFED7
:1056300007494FF4807200200A600C7188710322C0
:105640004A71C871BDE810400248FCF7CFBC0000A9
:10565000F80F0020000C02407CB5002405460094A1
:105660004FF400711D480194FBF7F0F81C480460EA
:105670001C480460F5268DF800600C208DF80100B0
:105680008DF802408DF804408DF803408DF80540F8
:1056900005210DF10100FEF777FA8DF806008DF86F
:1056A000076008226946104800F0B6FC4FF47A7093
:1056B000FEF7A6FA09480178F52902D141780C29AC
:1056C00001D001207CBDC178807851EA0021298079
:1056D00001D000207CBD05207CBD0000FC16002010
:1056E0000C10002010100020004400402DE9FC4167
:1056F00000240D460646904600944FF400711A4867
:105700000194FBF7A3F81948046019480460F527D1
:105710008DF80070C3208DF801008DF802608DF8BF
:1057200004808DF803508DF8054005210DF101002E
:10573000FEF72AFA8DF806008DF8077008226946F0
:105740000C4800F069FC4FF47A70FEF759FA0648ED
:105750000178F52905D14178C32902D18078002844
:1057600000D00120BDE8FC81FC1600200C100020B8
:1057700010100020004400407CB5002400944FF439
:1057800000711A480194FBF761F819480460194840
:105790000460F52505208DF800508DF801008DF886
:1057A00002408DF8044001468DF803408DF8054015
:1057B0000DF10100FEF7E8F98DF806008DF80750AD
:1057C000082269460C4800F027FC4FF47A70FEF777
:1057D00017FA06480178F52905D14178052902D143
:1057E0000079002800D001207CBD0000FC160020BC
:1057F0000C100020101000200044004008281FD08A
:1058000006DC11D2DFE800F0121410101618101A7E
:1058100011281DD004DC0A2814D0102804D113E06C
:10582000122817D0182811D00BA070470FA070476E
:1058300011A0704713A0704715A0704718A07047BB
:105840001AA070471DA070471FA0704721A0704785
:1058500024A0704727A07047C4A3BFE9B7B5BBD841
:10586000C8B7C8CFC2EBD3D0CEF30000D6B4D0D0E7
:10587000B3C9B9A600000000D6B4D0D0CAA7B0DC26
:1058800000000000CAFDBEDDBFE2C2FA0000000059
:10589000C3BBD3D0D5E2B8F6D3C3BBA7000000008A
:1058A000D3C3BBA7D2D1B4E6D4DA0000CDBCCFF1CC
:1058B000B2C9BCAFB3ACCAB100000000D3B2BCFEE9
:1058C000B4EDCEF300000000CDBCCFF1B4EDCEF3CB
:1058D00000000000D6D5D6B9B5B1C7B0D6B8C1EE74
:1058E00000000000CCF9C4A4B9A5BBF7BCECB2E23F
:1058F00000000000CDACD4B4D0D4D0A3D1E9B4ED35
:10590000CEF300007CB50024054600944FF40071EE
:105910001C480194FAF79AFF1B4804601B48046076
:10592000F5268DF800600D208DF801008DF80240FD
:105930008DF804408DF803408DF8054005210DF1E8
:105940000100FEF721F98DF806008DF807600822A6
:1059500069460F4800F060FB4FF47A70FEF750F98B
:105960000849C8788A7840EA022028800878F52813
:1059700005D148780D2802D10879002800D00120EF
:105980007CBD0000FC1600200C1000201010002030
:10599000004400407CB50024054600944FF400719B
:1059A0001B480194FAF752FF1A4804601A48046031
:1059B000F5268DF8006009208DF801008DF8024071
:1059C0008DF804408DF803408DF8054005210DF158
:1059D0000100FEF7D9F88DF806008DF8076008225F
:1059E00069460E4800F018FB4FF47A70FEF708F98C
:1059F00007490878F52802D14878092801D0012004
:105A00007CBDC878897840EA0120288000207CBDD0
:105A1000FC1600200C100020101000200044004054
:105A200010B5044600F006F9204600F02DFAC82211
:105A30000721BDE810400020FFF758BE2DE9FC5FAC
:105A40004FF000080446CDF800804FF40071544830
:105A5000CDF80480FAF7FAFEDFF848A1CAF8008012
:105A6000DFF844B1CBF80080F52701208DF80070F5
:105A70008DF80100210A8DF802108DF80400E5B2BE
:105A80003E468DF803508DF805800521E9460DF15D
:105A90000100FEF779F88DF806008DF807600822FE
:105AA0006946424800F0B8FA4FF47A70FEF7A8F859
:105AB0003B4E3078F52865D17078012862D1307975
:105AC00000285FD14FF400713046FAF7BFFECAF8E4
:105AD0000080CBF800808DF8007002208DF8010066
